{
  "contractName": "MApp",
  "abi": [
    {
      "anonymous": false,
      "inputs": [
        {
          "indexed": true,
          "internalType": "address",
          "name": "from",
          "type": "address"
        },
        {
          "indexed": true,
          "internalType": "address",
          "name": "to",
          "type": "address"
        },
        {
          "indexed": false,
          "internalType": "string",
          "name": "value",
          "type": "string"
        }
      ],
      "name": "etherAskEvent",
      "type": "event"
    },
    {
      "anonymous": false,
      "inputs": [
        {
          "indexed": true,
          "internalType": "address",
          "name": "from",
          "type": "address"
        },
        {
          "indexed": true,
          "internalType": "address",
          "name": "to",
          "type": "address"
        },
        {
          "indexed": false,
          "internalType": "bool",
          "name": "success",
          "type": "bool"
        }
      ],
      "name": "etherSentEvent",
      "type": "event"
    },
    {
      "anonymous": false,
      "inputs": [
        {
          "indexed": true,
          "internalType": "address",
          "name": "from",
          "type": "address"
        },
        {
          "indexed": true,
          "internalType": "address",
          "name": "to",
          "type": "address"
        },
        {
          "indexed": false,
          "internalType": "string",
          "name": "message",
          "type": "string"
        }
      ],
      "name": "messageSentEvent",
      "type": "event"
    },
    {
      "anonymous": false,
      "inputs": [
        {
          "indexed": true,
          "internalType": "address",
          "name": "from",
          "type": "address"
        },
        {
          "indexed": true,
          "internalType": "address",
          "name": "to",
          "type": "address"
        },
        {
          "components": [
            {
              "internalType": "string",
              "name": "message",
              "type": "string"
            },
            {
              "internalType": "address",
              "name": "from",
              "type": "address"
            }
          ],
          "indexed": false,
          "internalType": "struct MApp.Message[]",
          "name": "messages",
          "type": "tuple[]"
        }
      ],
      "name": "messagesFetchedEvent",
      "type": "event"
    },
    {
      "constant": true,
      "inputs": [
        {
          "internalType": "address",
          "name": "",
          "type": "address"
        },
        {
          "internalType": "address",
          "name": "",
          "type": "address"
        },
        {
          "internalType": "uint256",
          "name": "",
          "type": "uint256"
        }
      ],
      "name": "messages",
      "outputs": [
        {
          "internalType": "string",
          "name": "message",
          "type": "string"
        },
        {
          "internalType": "address",
          "name": "from",
          "type": "address"
        }
      ],
      "payable": false,
      "stateMutability": "view",
      "type": "function"
    },
    {
      "constant": false,
      "inputs": [
        {
          "internalType": "address",
          "name": "to",
          "type": "address"
        },
        {
          "internalType": "string",
          "name": "message",
          "type": "string"
        }
      ],
      "name": "sendMsg",
      "outputs": [],
      "payable": false,
      "stateMutability": "nonpayable",
      "type": "function"
    },
    {
      "constant": false,
      "inputs": [
        {
          "internalType": "address payable",
          "name": "to",
          "type": "address"
        }
      ],
      "name": "sendEther",
      "outputs": [],
      "payable": true,
      "stateMutability": "payable",
      "type": "function"
    },
    {
      "constant": false,
      "inputs": [
        {
          "internalType": "address",
          "name": "to",
          "type": "address"
        },
        {
          "internalType": "string",
          "name": "value",
          "type": "string"
        }
      ],
      "name": "askEther",
      "outputs": [],
      "payable": false,
      "stateMutability": "nonpayable",
      "type": "function"
    },
    {
      "constant": false,
      "inputs": [
        {
          "internalType": "address",
          "name": "to",
          "type": "address"
        }
      ],
      "name": "getAllMsg",
      "outputs": [],
      "payable": false,
      "stateMutability": "nonpayable",
      "type": "function"
    }
  ],
  "bytecode": "0x608060405234801561001057600080fd5b50611014806100206000396000f3fe60806040526004361061004a5760003560e01c806305e15c501461004f5780631c149a611461007857806348c981e2146100a157806374e96a4f146100bd5780637b02b2c9146100fb575b600080fd5b34801561005b57600080fd5b50610076600480360361007191908101906109d1565b610124565b005b34801561008457600080fd5b5061009f600480360361009a9190810190610a72565b610372565b005b6100bb60048036036100b691908101906109fa565b6103db565b005b3480156100c957600080fd5b506100e460048036036100df9190810190610a23565b6104bd565b6040516100f2929190610d64565b60405180910390f35b34801561010757600080fd5b50610122600480360361011d9190810190610a72565b6105c0565b005b60008060003373ffffffffffffffffffffffffffffffffffffffff1673ffffffffffffffffffffffffffffffffffffffff16815260200190815260200160002060008373ffffffffffffffffffffffffffffffffffffffff1673ffffffffffffffffffffffffffffffffffffffff16815260200190815260200160002080549050141561028f578073ffffffffffffffffffffffffffffffffffffffff163373ffffffffffffffffffffffffffffffffffffffff167f84f98e6e3886d9fe0747a845f61e31b3f01bb39ac0ff9fea88717e58002f11fc6000808573ffffffffffffffffffffffffffffffffffffffff1673ffffffffffffffffffffffffffffffffffffffff16815260200190815260200160002060003373ffffffffffffffffffffffffffffffffffffffff1673ffffffffffffffffffffffffffffffffffffffff1681526020019081526020016000206040516102829190610d05565b60405180910390a361036f565b8073ffffffffffffffffffffffffffffffffffffffff163373ffffffffffffffffffffffffffffffffffffffff167f84f98e6e3886d9fe0747a845f61e31b3f01bb39ac0ff9fea88717e58002f11fc6000803373ffffffffffffffffffffffffffffffffffffffff1673ffffffffffffffffffffffffffffffffffffffff16815260200190815260200160002060008573ffffffffffffffffffffffffffffffffffffffff1673ffffffffffffffffffffffffffffffffffffffff1681526020019081526020016000206040516103669190610d05565b60405180910390a35b50565b8173ffffffffffffffffffffffffffffffffffffffff163373ffffffffffffffffffffffffffffffffffffffff167fe9966c37819ddbac9ba6dca162dd1f5daa79db68a8eda92503b2ea0f8950debe836040516103cf9190610d42565b60405180910390a35050565b60008173ffffffffffffffffffffffffffffffffffffffff166108fc349081150290604051600060405180830381858888f1935050505090508173ffffffffffffffffffffffffffffffffffffffff163373ffffffffffffffffffffffffffffffffffffffff167faaae1b43e37c4a529c17d6b26869d52ac0c31f5437e460e7cf611ac42e9f4170836040516104719190610d27565b60405180910390a3806104b9576040517f08c379a00000000000000000000000000000000000000000000000000000000081526004016104b090610d94565b60405180910390fd5b5050565b600060205282600052604060002060205281600052604060002081815481106104e257fe5b90600052602060002090600202016000925092505050806000018054600181600116156101000203166002900480601f0160208091040260200160405190810160405280929190818152602001828054600181600116156101000203166002900480156105905780601f1061056557610100808354040283529160200191610590565b820191906000526020600020905b81548152906001019060200180831161057357829003601f168201915b5050505050908060010160009054906101000a900473ffffffffffffffffffffffffffffffffffffffff16905082565b6000803373ffffffffffffffffffffffffffffffffffffffff1673ffffffffffffffffffffffffffffffffffffffff16815260200190815260200160002060008373ffffffffffffffffffffffffffffffffffffffff1673ffffffffffffffffffffffffffffffffffffffff16815260200190815260200160002060405180604001604052808381526020013373ffffffffffffffffffffffffffffffffffffffff168152509080600181540180825580915050906001820390600052602060002090600202016000909192909190915060008201518160000190805190602001906106ad929190610899565b5060208201518160010160006101000a81548173ffffffffffffffffffffffffffffffffffffffff021916908373ffffffffffffffffffffffffffffffffffffffff1602179055505050506000808373ffffffffffffffffffffffffffffffffffffffff1673ffffffffffffffffffffffffffffffffffffffff16815260200190815260200160002060003373ffffffffffffffffffffffffffffffffffffffff1673ffffffffffffffffffffffffffffffffffffffff16815260200190815260200160002060405180604001604052808381526020013373ffffffffffffffffffffffffffffffffffffffff168152509080600181540180825580915050906001820390600052602060002090600202016000909192909190915060008201518160000190805190602001906107e5929190610899565b5060208201518160010160006101000a81548173ffffffffffffffffffffffffffffffffffffffff021916908373ffffffffffffffffffffffffffffffffffffffff1602179055505050508173ffffffffffffffffffffffffffffffffffffffff163373ffffffffffffffffffffffffffffffffffffffff167f6dc15866f16ccb265afd212167fbcae0b0fd203ba4bad85d6e53c8733d5248df8360405161088d9190610d42565b60405180910390a35050565b828054600181600116156101000203166002900490600052602060002090601f016020900481019282601f106108da57805160ff1916838001178555610908565b82800160010185558215610908579182015b828111156109075782518255916020019190600101906108ec565b5b5090506109159190610919565b5090565b61093b91905b8082111561093757600081600090555060010161091f565b5090565b90565b60008135905061094d81610f8c565b92915050565b60008135905061096281610fa3565b92915050565b600082601f83011261097957600080fd5b813561098c61098782610de1565b610db4565b915080825260208301602083018583830111156109a857600080fd5b6109b3838284610f12565b50505092915050565b6000813590506109cb81610fba565b92915050565b6000602082840312156109e357600080fd5b60006109f18482850161093e565b91505092915050565b600060208284031215610a0c57600080fd5b6000610a1a84828501610953565b91505092915050565b600080600060608486031215610a3857600080fd5b6000610a468682870161093e565b9350506020610a578682870161093e565b9250506040610a68868287016109bc565b9150509250925092565b60008060408385031215610a8557600080fd5b6000610a938582860161093e565b925050602083013567ffffffffffffffff811115610ab057600080fd5b610abc85828601610968565b9150509250929050565b6000610ad28383610cbc565b905092915050565b610ae381610eb8565b82525050565b610af281610eb8565b82525050565b6000610b0382610e37565b610b0d8185610e65565b935083602082028501610b1f85610e0d565b8060005b85811015610b5a57848403895281610b3b8582610ac6565b9450610b4683610e58565b925060208a01995050600181019050610b23565b50829750879550505050505092915050565b610b7581610edc565b82525050565b6000610b8682610e4d565b610b908185610e87565b9350610ba0818560208601610f21565b610ba981610f6e565b840191505092915050565b6000610bbf82610e42565b610bc98185610e87565b9350610bd9818560208601610f21565b610be281610f6e565b840191505092915050565b600081546001811660008114610c0a5760018114610c3057610c74565b607f6002830416610c1b8187610e76565b955060ff198316865260208601935050610c74565b60028204610c3e8187610e76565b9550610c4985610e22565b60005b82811015610c6b57815481890152600182019150602081019050610c4c565b80880195505050505b505092915050565b6000610c89601483610e87565b91507f4661696c656420746f2073656e642045746865720000000000000000000000006000830152602082019050919050565b60006040830160008084018583036000870152610cd98382610bed565b92505060018401549050610cec81610f54565b610cf96020870182610ada565b50819250505092915050565b60006020820190508181036000830152610d1f8184610af8565b905092915050565b6000602082019050610d3c6000830184610b6c565b92915050565b60006020820190508181036000830152610d5c8184610b7b565b905092915050565b60006040820190508181036000830152610d7e8185610bb4565b9050610d8d6020830184610ae9565b9392505050565b60006020820190508181036000830152610dad81610c7c565b9050919050565b6000604051905081810181811067ffffffffffffffff82111715610dd757600080fd5b8060405250919050565b600067ffffffffffffffff821115610df857600080fd5b601f19601f8301169050602081019050919050565b60008190508160005260206000209050919050565b60008190508160005260206000209050919050565b600081549050919050565b600081519050919050565b600081519050919050565b6000600282019050919050565b600082825260208201905092915050565b600082825260208201905092915050565b600082825260208201905092915050565b600073ffffffffffffffffffffffffffffffffffffffff82169050919050565b6000610ec382610ee8565b9050919050565b6000610ed582610ee8565b9050919050565b60008115159050919050565b600073ffffffffffffffffffffffffffffffffffffffff82169050919050565b6000819050919050565b82818337600083830152505050565b60005b83811015610f3f578082015181840152602081019050610f24565b83811115610f4e576000848401525b50505050565b6000610f67610f6283610f7f565b610e98565b9050919050565b6000601f19601f8301169050919050565b60008160001c9050919050565b610f9581610eb8565b8114610fa057600080fd5b50565b610fac81610eca565b8114610fb757600080fd5b50565b610fc381610f08565b8114610fce57600080fd5b5056fea365627a7a72315820cf4e388dfe9fdb9cc083b9cd35167dbe44637e553254cb44dad08de1f380fbbb6c6578706572696d656e74616cf564736f6c63430005100040",
  "source": "// SPDX-License-Identifier: UNLICENSED\n\npragma experimental ABIEncoderV2;\n\ncontract MApp {\n\n    mapping (address => mapping (address => Message[])) public messages;\n\n    struct Message {\n        string message;\n        address from;\n    }\n\n    event messageSentEvent(address indexed from, address indexed to, string message);\n    event etherSentEvent(address indexed from, address indexed to, bool success);\n    event etherAskEvent(address indexed from, address indexed to, string value);\n    event messagesFetchedEvent(address indexed from, address indexed to, Message[] messages);\n\n    function sendMsg(address to, string memory message) public {\n        messages[msg.sender][to].push(Message(message, msg.sender));\n        messages[to][msg.sender].push(Message(message, msg.sender));\n        emit messageSentEvent(msg.sender, to, message);\n    }\n\n    function sendEther(address payable to) public payable {\n        bool sent = to.send(msg.value);\n        emit etherSentEvent(msg.sender, to, sent);\n\n        require(sent, \"Failed to send Ether\");\n    }\n\n    function askEther(address to, string memory value) public {\n        emit etherAskEvent(msg.sender, to, value);\n    }\n\n    function getAllMsg(address to) public {\n        if (messages[msg.sender][to].length == 0) {\n            emit messagesFetchedEvent(msg.sender, to, messages[to][msg.sender]);\n        }\n        else {\n            emit messagesFetchedEvent(msg.sender, to, messages[msg.sender][to]);\n        }\n    }\n}\n",
  "sourcePath": "C:\\Users\\HARSHALA\\blockchain_chat_app\\src\\contracts\\MApp.sol",
  "compiler": {
    "name": "solc",
    "version": "0.5.16+commit.9c3226ce.Emscripten.clang"
  },
  "schemaVersion": "3.4.16",
  "updatedAt": "2024-01-07T14:15:29.667Z",
  "networkType": "ethereum",
  "devdoc": {
    "methods": {}
  },
  "userdoc": {
    "methods": {}
  }
}